:100000000C9462000C948A000C948A000C948A0070
:100010000C948A000C948A000C948A000C948A0038
:100020000C948A000C948A000C948A000C948A0028
:100030000C948A000C948A000C948A000C948A0018
:100040000C94F3020C948A000C9463030C943D030B
:100050000C948A000C948A000C948A000C948A00F8
:100060000C948A000C948A000000000024002700F1
:100070002A0000000000250028002B0000000000DE
:1000800023002600290004040404040404040202DA
:100090000202020203030303030301020408102007
:1000A0004080010204081020010204081020000012
:1000B0000008000201000003040700000000000027
:1000C0000000950311241FBECFEFD8E0DEBFCDBFE7
:1000D00011E0A0E0B1E0ECEEFBE002C005900D9273
:1000E000A433B107D9F722E0A4E3B1E001C01D9227
:1000F000A934B207E1F710E0C2E6D0E004C02197CE
:10010000FE010E94EE05C136D107C9F70E94220404
:100110000C94F4050C94000096E0899FD001112402
:10012000A652BE4F90967C936E935F9791E0919606
:100130009C939197E0914702F0914802909146027A
:10014000992339F0309751F0811108C08091F60160
:100150000994309719F05C968C91FACF0895CF925C
:10016000DF92EF92FF920F931F9396E0899FF00129
:100170001124E652FE4F11A2278D30A12130310506
:1001800051F178F02230310509F451C023303105A6
:1001900009F452C01F910F91FF90EF90DF90CF9024
:1001A00008956623B9F361E070E00E948C002FB7D8
:1001B000F8948091390190913A01A0913B01B0915E
:1001C0003C012FBF8093320290933302A0933402FC
:1001D000B0933502DFCF9FB7F894C0903901D0902B
:1001E0003A01E0903B01F0903C019FBF0091320248
:1001F000109133022091340230913502C01AD10A95
:10020000E20AF30A009144021091450230E020E036
:100210000C151D052E053F0550F462E070E01F919E
:100220000F91FF90EF90DF90CF900C948C006111B4
:10023000B1CF63E070E0F3CF70E060E0F0CF8330E7
:1002400081F028F4813099F08230A9F00895873048
:10025000A9F08830C9F08430B1F4809180008F7D9E
:1002600003C0809180008F7780938000089584B5CB
:100270008F7784BD089584B58F7DFBCF8091B000CA
:100280008F778093B00008958091B0008F7DF9CF73
:10029000CF93DF93282F30E0F901E255FF4F84918F
:1002A000F901E656FF4FD491F901EA57FF4FC49187
:1002B000CC23A1F081110E941F01EC2FF0E0EE0F82
:1002C000FF1FE458FF4FA591B491EC91ED2381E01D
:1002D00090E009F480E0DF91CF91089580E090E014
:1002E000FACF1F93CF93DF93282F30E0F901E25527
:1002F000FF4F8491F901E656FF4FD491F901EA5777
:10030000FF4FC491CC23A9F0162F81110E941F0129
:10031000EC2FF0E0EE0FFF1FEE58FF4FA591B491C8
:100320008FB7F894EC91111108C0D095DE23DC93BF
:100330008FBFDF91CF911F910895DE2BF8CFCF9320
:10034000DF9390E0FC01E656FF4F24918A579F4FC0
:10035000FC0184918823C9F090E0880F991FFC016B
:10036000E859FF4FA591B491FC01EE58FF4FC5919C
:10037000D49161110DC09FB7F8948C912095822380
:100380008C938881282328839FBFDF91CF91089584
:10039000623051F49FB7F8943C91822F809583236B
:1003A0008C93E8812E2BEFCF8FB7F894EC912E2B06
:1003B0002C938FBFEACF862F642F0C949F01862F3A
:1003C000642F0C947101862F0C944801AF92BF9258
:1003D000CF92DF92EF92FF920F931F93CF93DF9311
:1003E0006C017B018B01040F151FEB015E01AE1840
:1003F000BF08C017D10759F06991D601ED91FC9162
:100400000190F081E02DC6010995892B79F7C5018E
:10041000DF91CF911F910F91FF90EF90DF90CF90E0
:10042000BF90AF900895FC01538D448D252F30E08F
:10043000842F90E0821B930B541710F0CF960895F1
:1004400001970895FC01918D828D981761F0A28D1E
:10045000AE0FBF2FB11D5D968C91928D9F5F9F73E4
:10046000928F90E008958FEF9FEF0895FC01918D9A
:10047000828D981731F0828DE80FF11D858D90E007
:1004800008958FEF9FEF0895FC01918D228D892FA4
:1004900090E0805C9F4F821B91098F73992708958C
:1004A0008DE391E00E94440221E0892B09F420E0D1
:1004B000822F089580E090E0892B29F00E9450025D
:1004C00081110C9400000895FC01A48DA80FB92F90
:1004D000B11DA35ABF4F2C91848D90E001968F736C
:1004E0009927848FA689B7892C93A089B1898C918B
:1004F000837080648C93938D848D981306C00288DA
:10050000F389E02D80818F7D80830895EF92FF92A3
:100510000F931F93CF93DF93EC0181E0888F9B8D26
:100520008C8D98131AC0E889F989808185FF15C0E0
:100530009FB7F894EE89FF896083E889F989808103
:100540008370806480839FBF81E090E0DF91CF91D2
:100550001F910F91FF90EF900895F62E0B8D10E0F4
:100560000F5F1F4F0F731127E02E8C8D8E110CC063
:100570000FB607FCFACFE889F989808185FFF5CFAE
:10058000CE010E946402F1CFEB8DEC0FFD2FF11D27
:10059000E35AFF4FF0829FB7F8940B8FEA89FB89EB
:1005A00080818062CFCFCF93DF93EC01888D882349
:1005B000B9F0AA89BB89E889F9898C9185FD03C0C6
:1005C000808186FD0DC00FB607FCF7CF8C9185FFAB
:1005D000F2CF808185FFEDCFCE010E946402E9CF8A
:1005E000DF91CF9108951F920F920FB60F921124B1
:1005F0002F933F938F939F93AF93BF938091390134
:1006000090913A01A0913B01B0913C0130913801A9
:1006100023E0230F2D3758F50196A11DB11D20931E
:1006200038018093390190933A01A0933B01B09334
:100630003C018091340190913501A0913601B09137
:1006400037010196A11DB11D8093340190933501AE
:10065000A0933601B0933701BF91AF919F918F91D5
:100660003F912F910F900FBE0F901F90189526E885
:10067000230F0296A11DB11DD2CF1F920F920FB66C
:100680000F9211242F933F934F935F936F937F9318
:100690008F939F93AF93BF93EF93FF938DE391E07D
:1006A0000E946402FF91EF91BF91AF919F918F9152
:1006B0007F916F915F914F913F912F910F900FBE5E
:1006C0000F901F9018951F920F920FB60F92112442
:1006D0002F938F939F93EF93FF93E0914D01F091B0
:1006E0004E018081E0915301F091540182FD1BC0C5
:1006F0009081809156018F5F8F73209157018217EF
:1007000041F0E0915601F0E0E35CFE4F958F80935D
:100710005601FF91EF919F918F912F910F900FBEF6
:100720000F901F9018958081F4CF10924001109285
:100730003F0188EE93E0A0E0B0E080934101909308
:100740004201A0934301B093440184E091E090936F
:100750003E0180933D0185EC90E090934A018093A7
:10076000490184EC90E090934C0180934B0180EC24
:1007700090E090934E0180934D0181EC90E0909336
:10078000500180934F0182EC90E09093520180934E
:10079000510186EC90E090935401809353011092A4
:1007A000560110925701109258011092590110925F
:1007B000DC011092E0011092DF011092E10186E16C
:1007C00091E09093DB018093DA01E6EFF1E0108293
:1007D000148213821582369682E0E233F807B9F765
:1007E00080E291E090933D0280933C028CE191E0A5
:1007F00090933F0280933E0284E080934002809376
:10080000410284E291E090933B0280933A028AE0B5
:1008100090E0909343028093420284EF91E09093A2
:1008200045028093440210924802109247021092AF
:10083000360210923702109238021092390210924A
:1008400046020895789484B5826084BD84B5816041
:1008500084BD85B5826085BD85B5816085BD80918B
:100860006E00816080936E00109281008091810003
:1008700082608093810080918100816080938100FB
:10088000809180008160809380008091B1008460BD
:100890008093B1008091B00081608093B00080911E
:1008A0007A00846080937A0080917A0082608093DD
:1008B0007A0080917A00816080937A0080917A003A
:1008C000806880937A001092C100E0914D01F09110
:1008D0004E0182E08083E0914901F0914A0110824B
:1008E000E0914B01F0914C018FEC80831092550107
:1008F000E0915101F091520186E08083E0914F0137
:10090000F0915001808180618083E0914F01F091EE
:100910005001808188608083E0914F01F091500107
:10092000808180688083E0914F01F0915001808147
:100930008F7D8083812C912C5401839422242A94CE
:10094000322C50E0652E50E0752E51E05093460257
:100950008FB7F8944091390150913A0160913B0171
:1009600070913C018FBF8091360290913702A09127
:100970003802B0913902481B590B6A0B7B0B8091EE
:10098000420290914302B0E0A0E084179507A607C9
:10099000B70708F017C1C0E080914002C81760F4A3
:1009A000E0913C02F0913D02EC0FF11D62E080818C
:1009B0000E949F01CF5FF0CF512C809141025816C9
:1009C00008F05FC0052D10E0E0913E02F0913F027B
:1009D000E00FF11F61E080810E949F01E0913E02E3
:1009E000F0913F02E00FF11F60E080810E947101F1
:1009F000D501C401052C04C0880F991FAA1FBB1F75
:100A00000A94D2F76C017C01E094F094412C80911F
:100A100040024816F8F4C42DD0E0E0913C02F09179
:100A20003D02EC0FFD1F80810E9448012496CC0FEF
:100A3000DD1FC652DE4F892B41F4888199818C29B4
:100A40009D29998388834394E2CF888199818E215F
:100A50009F21F7CFE0913E02F0913F02E00FF11F9E
:100A600061E080810E94710180913E0290913F027D
:100A7000080F191F60E0F80180810E949F015394C4
:100A80009CCFCAEDD1E0FE01878D90A1892B21F486
:100A9000148E368E258E11A2369652E0E631F50779
:100AA00099F710E080914002181708F053C000E059
:100AB000E12EF12CEE0CFF1CC7018E519E4F7C01E4
:100AC00020914102021708F043C0F7016081718153
:100AD000002E02C0769567950A94E2F7129F900166
:100AE0001124200F311DEAEDF1E080E0458D568D97
:100AF0002417350709F470C08F5F36968A30B1F736
:100B000060FF24C0EAEDF1E090E080E0448D411107
:100B100018C0E0913A02F0913B02E20FF31F4081CE
:100B200056E0589FF001599FF00D1124E652FE4FF8
:100B3000448F368F258F10A2178E61E00E94AF0080
:100B400005C0019636968A30910501F70F5FB8CF40
:100B50001F5FA8CF80E099A19111892F269692E07E
:100B6000C631D907C1F79FB7F89440913901509128
:100B70003A0160913B0170913C019FBF4093360266
:100B80005093370260933802709339028823D1F072
:100B90008091FB018823B1F08091F9019091FA01D5
:100BA000019781F46091F60161110FC06114710425
:100BB00009F4CBCE0E945002882309F4C6CE0E94CD
:100BC0000000C3CE10924602F1CF683579F38DE371
:100BD00091E00E948602EACF6170B0CFEE0FFF1F56
:0C0BE0000590F491E02D0994F894FFCFEB
:100BEC00000000008602E6011302D3024402220236
:100BFC00360200000000DB01DF01E30106070809F3
:100C0C000203040528295858585858585858585809
:040C1C005858585874
:00000001FF
