:020000040000FA
:100000000C94FD000C9425010C9425010C94250101
:100010000C9425010C9425010C9425010C942501C8
:100020000C9425010C9425010C9425010C942501B8
:100030000C9425010C9425010C9425010C942501A8
:100040000C94160A0C9425010C94860A0C94600AF0
:100050000C9425010C9425010C9425010C94250188
:100060000C94B80A0C9425014E414E494E495459FE
:10007000494E46CDCCCC3D0AD7233C17B7D1387773
:10008000CC2B329595E6241FB14F0A000020410089
:1000900000C84200401C4620BCBE4CCA1B0E5AAED3
:1000A000C59D7400407A10F35A00A0724E180900E2
:1000B00010A5D4E80000E87648170000E40B5402CD
:1000C0000000CA9A3B000000E1F505000080969808
:1000D00000000040420F000000A086010000001058
:1000E0002700000000E8030000000064000000009A
:1000F000000A00000000000100000000002C76D87B
:1001000088DC674F0823DFC1DFAE59E1B1B796E560
:10011000E3E453C63AE651997696E8E6C28426EBC4
:10012000898C9B62ED407C6FFCEFBC9C9F40F2BAD7
:10013000A56FA5F490055A2AF75C936B6CF9676D6F
:10014000C11BFCE0E40D47FEF520E6B500D0ED90C4
:100150002E0300943577050080841E080000204E91
:100160000A000000C80C333333330F986E1283112A
:1001700041EF8D2114893BE65516CFFEE6DB18D101
:10018000844B381BF77C1D901DA4BBE424203284D3
:10019000725E228100C9F124ECA1E53D2700000038
:1001A00000240027002A0000000000250028002B62
:1001B00000000000002300260029000404040404B9
:1001C0000404040202020202020303030303030104
:1001D00002040810204080010204081020010204DB
:1001E00008102000000008000201000003040700BE
:1001F0000000000000000000D70B11241FBECFEF4D
:10020000D8E0DEBFCDBF23E0A8EAB1E001C01D9277
:10021000A33BB207E1F711E0A0E0B1E0E6EBFDE2BD
:1002200002C005900D92A83AB107D9F710E0CDEFC2
:10023000D0E004C02197FE010E94A816CC3FD10750
:10024000C9F70E948D0C0C94D9160C94000096E00E
:10025000899FD0011124AB5CBC4F90967C936E9328
:100260005F9791E091969C939197E091A203F09112
:10027000A3039091A103992339F0309751F0811194
:1002800008C0809151030994309719F05C968C91C5
:10029000FACF0895CF92DF92EF92FF920F931F93C0
:1002A00096E0899FF0011124EB5CFC4F11A2278D91
:1002B00030A12130310551F178F02230310509F4B7
:1002C00051C02330310509F452C01F910F91FF90A6
:1002D000EF90DF90CF9008956623B9F361E070E06E
:1002E0000E9427012FB7F89480918802909189028B
:1002F000A0918A02B0918B022FBF80938D039093BF
:100300008E03A0938F03B0939003DFCF9FB7F89431
:10031000C0908802D0908902E0908A02F0908B020F
:100320009FBF00918D0310918E0320918F03309118
:100330009003C01AD10AE20AF30A00919F031091B8
:10034000A00330E020E00C151D052E053F0550F4FC
:1003500062E070E01F910F91FF90EF90DF90CF90DF
:100360000C9427016111B1CF63E070E0F3CF70E02E
:1003700060E0F0CF833081F028F4813099F0823052
:10038000A9F008958730A9F08830C9F08430B1F41D
:10039000809180008F7D03C0809180008F77809353
:1003A0008000089584B58F7784BD089584B58F7DCE
:1003B000FBCF8091B0008F778093B000089580913B
:1003C000B0008F7DF9CFCF93DF93282F30E0F90174
:1003D000ED51FE4F8491F901E153FE4FD491F901A3
:1003E000E554FE4FC491CC23A1F081110E94BA01C3
:1003F000EC2FF0E0EE0FFF1FEF54FE4FA591B491EC
:10040000EC91ED2381E090E009F480E0DF91CF9161
:10041000089580E090E0FACF1F93CF93DF93282FC9
:1004200030E0F901ED51FE4F8491F901E153FE4FA7
:10043000D491F901E554FE4FC491CC23A9F0162FB5
:1004400081110E94BA01EC2FF0E0EE0FFF1FE95579
:10045000FE4FA591B4918FB7F894EC91111108C09B
:10046000D095DE23DC938FBFDF91CF911F9108954C
:10047000DE2BF8CFCF93DF9390E0FC01E153FE4FEA
:10048000249185549E4FFC0184918823C9F090E00B
:10049000880F991FFC01E356FE4FA591B491FC0112
:1004A000E955FE4FC591D49161110DC09FB7F894E5
:1004B0008C91209582238C938881282328839FBF49
:1004C000DF91CF910895623051F49FB7F8943C9139
:1004D000822F809583238C93E8812E2BEFCF8FB7CB
:1004E000F894EC912E2B2C938FBFEACF3FB7F89462
:1004F0008091840290918502A0918602B09187023A
:1005000026B5A89B05C02F3F19F00196A11DB11D6E
:100510003FBFBA2FA92F982F8827BC01CD01620FAA
:10052000711D811D911D42E0660F771F881F991F65
:100530004A95D1F708958F929F92AF92BF92CF9232
:10054000DF92EF92FF924B015C010E9476026B01F9
:100550007C010E9476026C197D098E099F09683E14
:10056000734081059105A8F321E0821A9108A10842
:10057000B10888EEC80E83E0D81EE11CF11C81147E
:100580009104A104B10429F7FF90EF90DF90CF9080
:10059000BF90AF909F908F900895862F642F0C94FA
:1005A0003A02862F642F0C940C02862F0C94E301E0
:1005B00008950895DC01ED91FC910190F081E02D0A
:1005C0000994AF92BF92CF92DF92EF92FF920F9376
:1005D0001F93CF93DF936C017B018B01040F151FD9
:1005E000EB015E01AE18BF08C017D10759F0699141
:1005F000D601ED91FC910190F081E02DC6010995A5
:10060000892B79F7C501DF91CF911F910F91FF9051
:10061000EF90DF90CF90BF90AF900895FC01538D85
:10062000448D252F30E0842F90E0821B930B5417CC
:1006300010F0CF96089501970895FC01918D828D59
:10064000981761F0A28DAE0FBF2FB11D5D968C91F2
:10065000928D9F5F9F73928F90E008958FEF9FEF31
:100660000895FC01918D828D981731F0828DE80FED
:10067000F11D858D90E008958FEF9FEF0895FC01A7
:10068000918D228D892F90E0805C9F4F821B910974
:100690008F73992708958CE892E00E943F0321E030
:1006A000892B09F420E0822F089580E090E0892BC7
:1006B00029F00E944B0381110C9400000895FC0165
:1006C000A48DA80FB92FB11DA35ABF4F2C91848DB3
:1006D00090E001968F739927848FA689B7892C9310
:1006E000A089B1898C91837080648C93938D848D63
:1006F000981306C00288F389E02D80818F7D808366
:100700000895EF92FF920F931F93CF93DF93EC0125
:1007100081E0888F9B8D8C8D98131AC0E889F989A8
:10072000808185FF15C09FB7F894EE89FF896083AB
:10073000E889F98980818370806480839FBF81E02C
:1007400090E0DF91CF911F910F91FF90EF9008956E
:10075000F62E0B8D10E00F5F1F4F0F731127E02E49
:100760008C8D8E110CC00FB607FCFACFE889F98981
:10077000808185FFF5CFCE010E945F03F1CFEB8D25
:10078000EC0FFD2FF11DE35AFF4FF0829FB7F89455
:100790000B8FEA89FB8980818062CFCFCF93DF9373
:1007A000EC01888D8823B9F0AA89BB89E889F98989
:1007B0008C9185FD03C0808186FD0DC00FB607FCBE
:1007C000F7CF8C9185FFF2CF808185FFEDCFCE01F1
:1007D0000E945F03E9CFDF91CF91089508952091A2
:1007E000E901260F3327331F21323105ECF4209124
:1007F0003202FC0190E080E0243069F082E008954C
:10080000A091E9012191AC0147535E4FA40FB52F90
:10081000B11D2C930196861798F38091E901680F1A
:100820006093E90180E0089581E00895109232021A
:1008300081E08093310210920C0261E082E10E941B
:100840000C0261E083E10E940C02E9EBF0E08081A0
:100850008E7F808380818D7F808388E48093B80041
:1008600085E48093BC000895CF93DF9391E090934B
:10087000C8018823B9F0C091B800D091BA00809126
:10088000BC008A7B8093BC0060E082E10E940C0285
:1008900060E083E10E940C020E941604D093BA002B
:1008A000C093B800DF91CF9108950895E09161025F
:1008B00080916002E81730F4F0E0E855FE4F808147
:1008C00090E008958FEF9FEF0895909161028091DD
:1008D00060022FEF3FEF981748F4E92FF0E0E8555A
:1008E000FE4F208130E09F5F90936102C90108951F
:1008F0008091600290916102891B990B0895CF92BB
:10090000DF92EF92FF920F931F93CF93DF937C01BF
:10091000CB018A0120913802222389F0EB016B017F
:10092000C40ED51ECC15DD0569F06991D701ED9196
:10093000FC910190F081E02DC7010995F3CF642F60
:100940000E94EF03C801DF91CF911F910F91FF909B
:10095000EF90DF90CF900895CF93DF931F92CDB7A4
:10096000DEB76983209138022223F9F020915E02DC
:10097000203258F021E030E0FC013383228390E004
:1009800080E00F90DF91CF91089580915F02E82F72
:10099000F0E0E75CFD4F998190838F5F80935F0269
:1009A00080935E0281E090E0ECCF61E0CE010196A1
:1009B0000E94EF03F7CFCF92DF92EF92FF920F9357
:1009C0001F93CF93DF93FC01C48121E02093380271
:1009D000C093590210925F0210925E028485682BC8
:1009E00089E293E00E94AC04D0915E02D13208F01B
:1009F00092C00E9476026B017C01809132028111CB
:100A000065C082E08093320281E0809331028FEFF3
:100A10008093300210922F02D0932E02A9E3B2E00D
:100A2000EEE0F2E080E0D81385C010920D028091D4
:100A30000D02CC0FC82BC0930D0280910C028130A7
:100A400009F07CC010920C020E9476026B017C01BE
:100A500080910D028093BB00809134029091350209
:100A6000A0913602B0913702892B8A2B8B2B99F0FB
:100A70000E947602009134021091350220913602D4
:100A8000309137026C197D098E099F0906171707E7
:100A900028073907E0F18091BC0083FDD9CF85ECB0
:100AA0008093BC000E9476026B017C01809132022F
:100AB000823009F445C0809130028F3F61F180910E
:100AC0003002803241F18091300225C080913402A1
:100AD00090913502A0913602B0913702892B8A2B72
:100AE0008B2B09F48ACF0E94760200913402109178
:100AF000350220913602309137026C197D098E093A
:100B00009F09061717072807390708F076CF809145
:100B100033020E94340410925F0210925E0210921F
:100B20003802DF91CF911F910F91FF90EF90DF90EE
:100B3000CF9008959D9191938F5F75CF85EEB0CF43
:100B40008091340290913502A0913602B091370223
:100B5000892B8A2B8B2B09F4A9CF0E947602009156
:100B600034021091350220913602309137026C190F
:100B70007D098E099F09061717072807390708F00E
:100B800095CFC5CF90E080E008952F923F924F928D
:100B90005F926F928F929F92AF92BF92CF92DF92AD
:100BA000EF92FF920F931F93CF93DF93CDB7DEB7F2
:100BB000C656D1090FB6F894DEBF0FBECDBF5C019B
:100BC000462E6A014901A7961FAF0EAFA797512C79
:100BD000E12CE0E0612C8DE2382ED501A60DB11D8F
:100BE0001C9180ED810F8A30A8F01E3299F01D32E1
:100BF00009F054C0662031F011978C9180538A30EF
:100C000008F47CC0A1E0B0E0AC0FBD1FAE0FB11D79
:100C10003C9209C0E33640F4A1E0B0E0AC0FBD1F48
:100C2000AE0FB11D1C93EF5F63944614B0F6EE2334
:100C3000B9F081E090E08C0F9D1F8E0F911DFC019B
:100C4000108294E0E99E70011124CE0CDF1CCE01CD
:100C500001960E944A10F601608371838283938318
:100C6000A796EEADFFADA7975082CA59DF4F0FB6DA
:100C7000F894DEBF0FBECDBFDF91CF911F910F91D2
:100C8000FF90EF90DF90CF90BF90AF909F908F90AC
:100C90006F905F904F903F902F900895EE23D9F082
:100CA00081E090E08C0F9D1F8E0F911DFC01108242
:100CB000222423942E0C94E0E99E70011124EC0C64
:100CC000FD1CCE0101960E944A10F70160837183DA
:100CD00082839383E22C112319F284E01F3239F0CE
:100CE00083E01A3221F082E01B3209F081E0F40146
:100CF000E50DF11D80835394E0E096CFEE23B1F330
:100D0000CFCFFC0101900020E9F73197AF01481BDC
:100D1000590BBC018CE892E00C94E1028F929F92F7
:100D2000AF92BF920F931F93CF93DF93CDB7DEB7F0
:100D3000A1970FB6F894DEBF0FBECDBF19A2423007
:100D400008F44AE08E010F5D1F4F842E912CB12CC8
:100D5000A12CA50194010E948616E62FB901CA01B3
:100D6000EA30F4F4E05DD801EE938D01232B242BBF
:100D7000252B79F790E080E0109719F0CD010E94C3
:100D80008106A1960FB6F894DEBF0FBECDBFDF91EE
:100D9000CF911F910F91BF90AF909F908F9008952A
:100DA000E95CE1CF0F931F93CF938C01C62F0E9474
:100DB000DB046C2F6460C8010E94DB046C2F6B7F26
:100DC000C8010E94DB0483EC90E00197F1F7CF911A
:100DD0001F910F9108950F931F93CF93DF938C0171
:100DE000D62FC42F607F642B0E94D20680E1D89F4B
:100DF000B00111246C2BC801DF91CF911F910F918D
:100E00000C94D206CF93DF93CDB7DEB728970FB6F9
:100E1000F894DEBF0FBECDBF98E0E8E1F1E0DE015F
:100E2000119601900D929A95E1F79091AC03961767
:100E300008F46FEF262F30E0220F331F41E050E01F
:100E40004C0F5D1F240F351FF9016081680F60682A
:100E500040E084EA93E028960FB6F894DEBF0FBE18
:100E6000CDBFDF91CF910C94EB060F931F93CF93DF
:100E7000DF93EB01FB0101900020E9F731971E2F72
:100E8000161B682F80E00E94020700E060E2011755
:100E900008F4688184EA93E00E94DA020F5F2196E9
:100EA0000031A1F7DF91CF911F910F910895CF935A
:100EB000DF93D82F682F80E00E940207C0E160E234
:100EC00084EA93E00E94DA02C150C9F76D2F80E0F6
:100ED000DF91CF910C94020740E061E084EA93E057
:100EE0000E94EB068BE39FE10197F1F78091AD0340
:100EF000882321F060E080E00C94020708950C94B0
:100F00006C07CF93DF93EC010E947F076AE571E0E5
:100F100080E00E943507BE0181E00E9435076CED3C
:100F200075E080E090E00E949B020E947F07109293
:100F30008202DF91CF9108951F93CF93DF93CDB7B6
:100F4000DEB7A1970FB6F894DEBF0FBECDBF182F46
:100F5000E0918202EF31A8F581E08E0F809382024A
:100F6000F0E0EE59FD4F1083BE016F5F7F4F91E2BD
:100F7000FB0111929A95E9F7E82F803108F4E0E13E
:100F8000E0518E1BF0E0EE59FD4FDB0190E0981729
:100F900031F0903121F021912D939F5FF8CF80E0C7
:100FA0000E943507612F8CE892E00E94DA02A19638
:100FB0000FB6F894DEBF0FBECDBFDF91CF911F916A
:100FC000089581E691E00E948107F1CF41E00E94FF
:100FD000EB0681E090E0089585ED8093BC00809160
:100FE000340290913502A0913602B09137020796F3
:100FF000A11DB11D23E0B695A795979587952A95D4
:10100000D1F72091BC0024FD03C010923202089554
:10101000409134025091350260913602709137024E
:10102000452B462B472B69F30097A105B10541F0ED
:101030002AE22A95F1F700C00197A109B109E1CF91
:10104000809133020C943404CF93DF93FB01A08191
:101050004A1738F5EB01E42FF0E0B0E0AE1BBF0B10
:101060001197A29FA001A39F500DB29F500D112474
:10107000DF011196A29FB001A39F700DB29F700D6A
:101080001124680F791FE29FD001E39FB00DF29FFA
:10109000B00D11248A0F9B1F0E94AE1688818150CB
:1010A0008883DF91CF9108953F924F925F926F9224
:1010B0007F928F929F92AF92BF92CF92DF92EF92E8
:1010C000FF920F931F93CF93DF9300D000D0CDB743
:1010D000DEB79C838B836B014A83342E84E0F60158
:1010E00010E0311629F09191981729F01F5FF9CF80
:1010F0008150A9F710E0812F90E07C01EE0CFF1CDD
:10110000EE0CFF1C2B813C81E20EF31EF701808068
:101110009180A280B38044805580668077808C0D5A
:101120009D1DFC01008120E030E0A901C301B20156
:101130000E94F61381111FC00430E9F48AE691E0A1
:101140000E94810760E070E0CB010F900F900F903C
:101150000F90DF91CF911F910F91FF90EF90DF9053
:10116000CF90BF90AF909F908F907F906F905F9047
:101170004F903F900895023009F43FC030F40130A1
:1011800079F060E070E0CB0111C00330E9F1043088
:10119000C1F7A3019201C501B4010E94DB1506C08D
:1011A000A3019201C501B4010E946E15F1E03F1642
:1011B00061F2F7016083718382839383992493940E
:1011C000930C998241E0410F24E030E0BE016F5F53
:1011D0007F4F8B819C810E94240821E030E0412FC9
:1011E000BE016E5F7F4FC6010E9424084A81B6018E
:1011F0008B819C810E945408A8CFA3019201C50154
:10120000B4010E946F15D2CFA3019201C501B401B0
:101210000E945C14CBCF5F926F927F928F929F92CD
:10122000AF92BF92CF92DF92EF92FF920F931F93F4
:10123000CF93DF93CDB7DEB7C455D1090FB6F8947D
:10124000DEBF0FBECDBF6C016DB67EB6FC01019056
:101250000020E9F73197BF01681B790B962FF60143
:10126000F12CE12C512C1E2DE91608F0C5C08191FE
:10127000883209F4BCC0893209F0BAC08DB69EB676
:101280002DB73EB7205231090FB6F8943EBF0FBEBE
:101290002DBF8DB79EB70196FC0171E0750D30E052
:1012A00020E0472F50E0622F711778F42F3131057D
:1012B00059F0DA01A20FB31FAC0DBD1D6C91619303
:1012C0007F5F2F5F3F4FEFCF6FE1280F391FF9018D
:1012D00010822DB73EB7245431090FB6F8943EBFA3
:1012E0000FBE2DBFEDB7FEB731965F0165961FAEFD
:1012F00065978E010C5A1F4F9E012B5B3F4FAF012C
:101300000E94C50565964FAD6597BE016B5B7F4F2B
:10131000C5010E9454080355110926E041E00E94CE
:101320002C102DB73EB7205431090FB6F8943EBFAC
:101330000FBE2DBF0DB71EB70F5F1F4FEDB7FEB726
:101340001182452D50E0B601C8010E94C016F80177
:1013500001900020E9F73197E01BF10B8FE3A82EF5
:10136000B12CA5014E1B5F0BBE016F5F7F4FC80103
:101370000E94C016F80101900020E9F73197E01BA8
:10138000F10BA5014E1B5F0BB7016F5F7F4F6C0D1B
:101390007D1DC8010E94C016C8010E94810688E711
:1013A00091E00E948106C8010E940B090FB6F894D3
:1013B0009EBE0FBE8DBE0FB6F8947EBE0FBE6DBE34
:1013C000CC5ADF4F0FB6F894DEBF0FBECDBFDF9112
:1013D000CF911F910F91FF90EF90DF90CF90BF9032
:1013E000AF909F908F907F906F905F9008955E2C4C
:1013F0002FEFE21AF20A37CF65961FAE65978E017E
:101400000C5A1F4F9E012B5B3F4FAE014F5F5F4F4A
:10141000C6010E94C50565964FAD6597BE016B5B21
:101420007F4FCE0101960E945408C5CF1F920F92A4
:101430000FB60F9211242F933F938F939F93AF93E7
:10144000BF938091880290918902A0918A02B09105
:101450008B023091830223E0230F2D3758F501963C
:10146000A11DB11D2093830280938802909389026D
:10147000A0938A02B0938B0280918402909185029E
:10148000A0918602B09187020196A11DB11D8093A3
:10149000840290938502A0938602B0938702BF9145
:1014A000AF919F918F913F912F910F900FBE0F9011
:1014B0001F90189526E8230F0296A11DB11DD2CFCB
:1014C0001F920F920FB60F9211242F933F934F93B9
:1014D0005F936F937F938F939F93AF93BF93EF939C
:1014E000FF938CE892E00E945F03FF91EF91BF9120
:1014F000AF919F918F917F916F915F914F913F91AC
:101500002F910F900FBE0F901F9018951F920F9262
:101510000FB60F9211242F938F939F93EF93FF9306
:10152000E0919C02F0919D028081E091A202F091F5
:10153000A30282FD1BC090818091A5028F5F8F73F3
:101540002091A602821741F0E091A502F0E0E45755
:10155000FD4F958F8093A502FF91EF919F918F9101
:101560002F910F900FBE0F901F9018958081F4CF90
:101570001F920F920FB60F9211242F933F934F9308
:101580005F936F937F938F939F93AF93BF93EF93EB
:10159000FF938091B900887F803609F44AC0F0F546
:1015A000883209F4A7C018F5803109F49BC0B8F45B
:1015B000882309F4F9C0883009F494C0FF91EF91B1
:1015C000BF91AF919F918F917F916F915F914F915B
:1015D0003F912F910F900FBE0F901F90189588315B
:1015E00009F488C0803251F78093300214C08034EF
:1015F00009F49DC040F48033B9F38833F9F6809341
:10160000300285ECB0C0803509F485C0883509F416
:1016100096C0883499F60E94EC07D0CF883909F437
:101620008CC038F5883729F050F4883611F08037AF
:1016300029F683E08093320210920B0257C088385B
:1016400009F47BC0803919F0803809F0B7CF809158
:101650000B02803208F071C0E0910B0281E08E0F26
:1016600080930B028091BB00F0E0E551FE4F808338
:101670003DC0803B39F0E0F4803A09F479C0883A03
:1016800009F09CCF84E0809332021092EA0110921C
:10169000E901E0915C02F0915D0209958091E90118
:1016A00081110FC081E08093E9011092C90109C046
:1016B000803C09F4A6CF883C09F4A3CF883B09F00D
:1016C0007DCFE091EA0181E08E0F8093EA01F0E0A6
:1016D000E753FE4F80818093BB009091EA01809197
:1016E000E90129C080910D028093BB0085EC8093B5
:1016F000BC0064CF90912F0280912E02981758F56C
:10170000E0912F0281E08E0F80932F02F0E0E25FE4
:10171000FD4F8081E9CFE0912F0281E08E0F809311
:101720002F028091BB00F0E0E25FFD4F808390913B
:101730002F0280912E029817C8F285E8D8CFE09149
:101740002F0281E08E0F80932F028091BB00F0E08A
:10175000E25FFD4F80838091310281115CCF81E097
:1017600080930C0284EA8093BC001092320226CF50
:1017700085EC8093BC001092320280910B02803283
:1017800030F4E0910B02F0E0E551FE4F10826091E1
:101790000B0270E0E0915A02F0915B028BEE91E057
:1017A000099510920B020ACF1092300234CF10929A
:1017B0008F0210928E0288EE93E0A0E0B0E080935A
:1017C000900290939102A0939202B093930224E22C
:1017D00031E030938D0220938C0225EC30E0309381
:1017E00099022093980224EC30E030939B022093DE
:1017F0009A0220EC30E030939D0220939C0221EC71
:1018000030E030939F0220939E0222EC30E0309330
:10181000A1022093A00226EC30E03093A302209393
:10182000A2021092A5021092A6021092A702109294
:10183000A80210922C0310922B0380932D039093F7
:101840002E03A0932F03B093300386E391E090938F
:101850002A03809329031092A7031092A60382E51E
:1018600091E09093A5038093A4031092AD0380E2CE
:101870008093A80380E18093AE0382E08093AF035E
:101880001092B0031092370310923B0310923A0368
:1018900010923C0388E491E09093360380933503E3
:1018A000E1E5F3E01082148213821582369683E01C
:1018B000ED38F807B9F784E091E0909398038093AE
:1018C000970380E091E090939A038093990384E0DA
:1018D00080939B0380939C0388E091E09093960310
:1018E000809395038AE090E090939E0380939D03FC
:1018F00084EF91E09093A00380939F031092A30341
:101900001092A203109291031092920310929303EB
:10191000109294031092A1030895CF93DF93CDB753
:10192000DEB762970FB6F894DEBF0FBECDBF7894D6
:1019300084B5826084BD84B5816084BD85B58260D4
:1019400085BD85B5816085BD80916E008160809385
:101950006E001092810080918100826080938100EE
:1019600080918100816080938100809180008160FE
:10197000809380008091B10084608093B100809159
:10198000B00081608093B00080917A008460809381
:101990007A0080917A00826080937A0080917A0048
:1019A000816080937A0080917A00806880937A00C9
:1019B0001092C100E0919C02F0919D0282E0808330
:1019C000E0919802F09199021082E0919A02F091D0
:1019D0009B028FEC80831092A402E091A002F09110
:1019E000A10286E08083E0919E02F0919F028081B7
:1019F00080618083E0919E02F0919F0280818860E7
:101A00008083E0919E02F0919F02808180688083B4
:101A1000E0919E02F0919F0280818F7D80831092E1
:101A200061021092600210925F0210925E020E94A8
:101A3000160488ED92E090935D0280935C0289ED3C
:101A400092E090935B0280935A021092A9038091D6
:101A5000AF03823018F098E09093A9038093AC0311
:101A600062E370E080E090E00E949B026091B0032E
:101A700084EA93E00E94DB0468EE73E080E090E08B
:101A80000E949B0260E384EA93E00E94D2060BE48A
:101A900016E4C8010197F1F760E384EA93E00E943D
:101AA000D206C8010197F1F760E384EA93E00E944F
:101AB000D20683E592E00197F1F760E284EA93E0D1
:101AC0000E94D2066091A903606240E084EA93E03C
:101AD0000E94EB0684E08093AA0340E06CE084EA75
:101AE00093E00E94EB060E946C0782E08093AB03B8
:101AF00040E066E084EA93E00E94EB0640E062E0AA
:101B000084EA93E00E94EB068BE39FE10197F1F7F3
:101B100088E08093B00360E084EA93E00E94DB04F5
:101B20000E947F076BE771E080E00E94350781E04B
:101B30000E945707412C512C32014394CE0101964B
:101B40009A8B898B91E09093A1038FB7F894409181
:101B500088025091890260918A0270918B028FBF36
:101B60008091910390919203A0919303B09194037B
:101B7000481B590B6A0B7B0B80919D0390919E0330
:101B8000B0E0A0E084179507A607B70708F020C1CA
:101B900010E080919B03181760F4E0919703F09197
:101BA0009803E10FF11D62E080810E943A021F5FFD
:101BB000F0CF312C80919C03381608F061C0C32C03
:101BC000D12CE0919903F0919A03EC0DFD1D61E099
:101BD00080810E943A02E0919903F0919A03EC0D02
:101BE000FD1D60E080810E940C02D301C201032C24
:101BF00004C0880F991FAA1FBB1F0A94D2F74C017B
:101C00005C01A094B094212C80919B03281608F5C8
:101C1000022D10E0E0919703F0919803E00FF11F7F
:101C200080810E94E3010C5F1F4F000F111FF8011C
:101C3000EB5CFC4F892B41F48081918188299929A3
:101C4000918380832394E0CF808191818A219B219D
:101C5000F7CFE0919903F0919A03EC0DFD1D61E03F
:101C600080810E940C028091990390919A03C80E82
:101C7000D91E60E0F60180810E943A0233949ACF27
:101C800005E313E0F801878D90A1892B31F4148EC0
:101C90008FEF9FEF968F858F11A2369693E0E137F5
:101CA000F90789F7B12C80919B03B81608F053C04F
:101CB000A12CCB2CD12CCC0CDD1CF601E35CFC4F11
:101CC0006F0120919C03A21608F043C0F6016081C9
:101CD00071810A2C02C0769567950A94E2F7B29E4C
:101CE000900111242A0D311DE5E3F3E080E0458DDC
:101CF000568D2417350709F4ADC18F5F36968A30AB
:101D0000B1F760FF24C0E5E3F3E090E080E0448DAC
:101D1000411118C0E0919503F0919603E20FF31F73
:101D2000408156E0589FF001599FF00D1124EB5C63
:101D3000FC4F448F368F258F10A2178E61E00E94D2
:101D40004A0105C0019636968A30910501F7A394A1
:101D5000B8CFB394A8CF80E0F80191A19111892F59
:101D60000A5F1F4FF3E001371F07B1F79FB7F894E1
:101D7000409188025091890260918A0270918B0291
:101D80009FBF40939103509392036093930370938A
:101D900094038823E9F0809156038823C9F0809149
:101DA000540390915503019799F480915103811147
:101DB00012C08CE892E00E943F03892B89F18CE8E5
:101DC00092E00E941D038823A1F30E949C07F1CF9B
:101DD0001092A103EECF8D33C1F790918202903221
:101DE00028F4E92FF0E0EE59FD4F1082A2E6B2E0B0
:101DF000FD0131E0391720F5218180ED820F8A3015
:101E0000E0F0808140ED480F4A30B8F0285222308F
:101E1000A0F08852823088F086E891E00E94810725
:101E2000E0E0F0E0EF2B09F48DCE0E944B03882315
:101E300009F488CE0E94000085CE3F5F3196DACF4C
:101E400030E020E080E040E05D9160ED650F6A30B9
:101E500008F04CC08F3008F48F5F4F5F9417A0F7E5
:101E6000311105C0812C912C5401213031F482E6CE
:101E700092E00E940B094B015C018E010F5F1F4F26
:101E800026E041E0C501B4010E942C1081E00E94CF
:101E90005707E989FA8901900020E9F73197898984
:101EA0009A89E81BF90B00E10E1BE03108F000E015
:101EB00081E00E94570761E0802F0E940207D12C29
:101EC00010E08D2D90E0E1E0F0E0EC0FFD1FE80F59
:101ED000F91F6081662391F0800F911F409774F481
:101EE00084EA93E00E94DA02D394EBCF81112F5F52
:101EF000552309F4B5CF3F5F80E0AFCF83E991E090
:101F00000E948106A5019401C501B4010E948116B9
:101F1000882371F08CE991E00E94810688E791E0C6
:101F20000E94810680E00E9457071092820241CFF2
:101F300075016401E894F7F82FEF3FEF4FE75FE793
:101F4000C701B6010E94811681110DC02FEF3FEF2E
:101F50004FE75FE7C701B6010E94F61318161CF49D
:101F600080EA91E0D9CF2FEF3FEF4FE75FE4C50163
:101F7000B4010E947C1618161CF484EA91E0CCCFC0
:101F80002FEF3FEF4FE75FECC501B4010E94F6135E
:101F900087FDF3CF20E030E0A901C501B4010E9424
:101FA000F61387FF09C06DE28CE892E00E94DA0226
:101FB000B7FAB094B7F8B0942AE037ED43EA5BE3A0
:101FC000C501B4010E946F156B017C010E944D1682
:101FD0004B015C010E94FB139B01AC01C701B601E0
:101FE0000E946E156B017C014AE0C501B4010E949C
:101FF0008E066EE28CE892E00E94DA0220E030E089
:1020000040E251E4C701B6010E945C146B017C01FF
:102010000E944D164B01B12CA12C4AE0C501B40120
:102020000E948E06C501B4010E94FB139B01AC0106
:10203000C701B6010E946E1520E030E040E251E495
:102040000E945C140E944D1690E080E04AE00E94DD
:102050008E0664CF617073CEEF920F931F93CF9370
:10206000DF93E80134E047FD34E1042E000C550B0A
:1020700057FF03C0519541955109E32E022F242F9C
:10208000AE010E944E10CE01DF91CF911F910F91B2
:10209000EF900895662777270C94AD11A9E0B0E082
:1020A000E4E5F0E10C942E156A01F22EB02E102F0B
:1020B000FBE3AF2EA01608F41BE31F5F012F27E000
:1020C000AE014F5F5F4F0E94FD12BC018981982FC6
:1020D0009970913009F43FC09BE2E1FC04C09E2D51
:1020E0009170E0FC3AC05E2D5071E82FE87083FFDC
:1020F00046C084E0911101C083E0EF2DE81B8F15ED
:1021000008F0E0E0D6018E2F20E2552351F199230B
:1021100029F0D6019C93C60101966C0196012D5FB2
:102120003F4FE2FE24C08EE4D6018C9391E41196D9
:102130009C93119712968C93D9018E2F90E2811166
:102140001BC0E20FF32FF11D10828EEF9FEF299637
:10215000ECE00C944A159DE2C6CF90E2C4CF2D93DB
:1021600081508111FCCFCE0ED11CE0E0D0CF8EE6A5
:10217000D6018C9391E6DBCF9D938150E0CF482F21
:10218000447082FF3DC084E0911101C083E08F154F
:1021900010F4EF2DE81BD6018E2F20E2552309F114
:1021A000992329F0D6019C93C60101966C019601F2
:1021B0002D5F3F4FE2FE1BC089E4D6018C938EE475
:1021C00011968C93119786E412968C93D9018E2FD9
:1021D00090E2882309F4B5CF9D938150FACF2D93D7
:1021E00081508111FCCFCE0ED11CE0E0D9CF89E621
:1021F000D6018C938EE611968C93119786E6E4CFE8
:102200009B0177FF02C030E020E0A1E0B0E0911137
:1022100002C0B0E0A0E0F9013196AE0FBF1F8B2CD9
:10222000912CBB2009F461C05401EFEFAE1ABE0A35
:10223000AA0DBB1DFA161B0619F014F04F2D4A1BF0
:10224000511188C0E3FC59C07601A42FB0E2A1115E
:102250004FC0C40ED11C992309F45BC040E0D601E5
:102260001196F60190836D01552309F448C0012FA2
:10227000060F9A81582F507184FF03C0913309F4DF
:10228000015010160CF047C0093008F008E0EEE2EB
:10229000FE2E5B01A01AB1088501919481949108EA
:1022A0002F3F320729F4D601FC92F60131966F01D7
:1022B0006217730794F1021713077CF5DB01A21B69
:1022C000B30BAA24A394B12CAC0EBD1EAA0DBB1D4A
:1022D00011968C9121503109D60111962815390596
:1022E000F4F0F60180836D01DBCFB12CA12CA0CFDF
:1022F000F701B1937F01A150AACF9111B0CFD601C0
:10230000942F50E302C05D9391509111FCCFC40E05
:10231000D11C40E0ACCF01E0BACF80E3DBCF621745
:10232000730731F4963388F4953311F4552369F02B
:10233000F6018083FD01842F90E2811108C0A40F73
:10234000B11D1C9290E080E002CF81E3F1CF919328
:102350008150F3CF911183CF8ACFB0E0A0E0E3EBBF
:10236000F1E10C942E155C017B016115710519F0EA
:10237000DB018D939C9385010F5F1F4FF501D08189
:102380008D2F90E00E94D5136C01892BB9F5DD32B9
:10239000B9F50F5F1F4FD5011196DC91C1E05801CF
:1023A000F1E0AF1AB10843E050E060E770E0C5012A
:1023B0000E94DE13892B69F5680182E0C80ED11CEA
:1023C00045E050E06BE670E0C6010E94DE13892B09
:1023D00021F4680197E0C90ED11CE114F10419F051
:1023E000D701CD92DC9260E070E080E89FEFC111F0
:1023F000FFC060E070E080E89FE7FAC05801BBCF03
:10240000DB3229F485010E5F1F4FF501D181C0E059
:10241000C6CF43E050E068E670E0C5010E94DE13DD
:10242000892BE9F0F80110E000E020E030E0A9019C
:102430005F01B0ED8B2E8D0E89E08815C8F19C2EC2
:10244000689491F88C2F8870C2FF16C0811102C069
:102450000F5F1F4F3196D501DC91C92DE9CFE114F3
:10246000F10429F00E5F1F4FF7011183008360E034
:1024700070E080EC9FE7BCC0882311F00150110987
:10248000A5E0B0E00E941D159B01AC01220F331F97
:10249000441F551F280D311D411D511D283999E933
:1024A0003907490799E15907A8F2C6609C2ED2CF97
:1024B000AEEF8A1206C0C3FD3CC09C2E689493F810
:1024C000C9CFDF7DD534A9F580818D3239F4C06163
:1024D000DF011296818162E070E006C0DF018B327D
:1024E000C1F3119661E070E080535D01A61AB70A4E
:1024F0008A30F8F4E0E8CE16ECE0DE065CF4B601D3
:10250000660F771F660F771FC60ED71ECC0CDD1C1B
:10251000C80ED11C5D01FFEFAF1ABF0A8C9180532A
:102520008A30A8F1C4FF03C0D194C194D1080C0D26
:102530001D1DC1FF09C0E114F10431F081E0A81AAA
:10254000B108D701AD92BC92CA01B9010E94FB1338
:10255000C370C33009F490584B015C0120E030E0B7
:10256000A9010E94F613882309F440C0CFE9D0E006
:1025700017FF05C0119501951109C7E8D0E06E015C
:10258000B8E1CB1AD10880E2E82EF12C0FC0D501BA
:10259000B1CFFE0125913591459154910E191F0936
:1025A000C501B4010E945C144B015C01D501C4015A
:1025B0000E151F0574F72497F594E794CC16DD06E5
:1025C000A9F78A2F880F8B2F881F8F3F49F020E0B3
:1025D00030E0A901C501B4010E94F613811106C0C3
:1025E00082E290E09093B2038093B103C501B401FD
:1025F000CDB7DEB7ECE00C944A15283008F027E0A0
:102600003327DA01990F311D87FD9160009661052E
:10261000710539F432602E5F3D9330E32A95E1F77E
:1026200008959F3F30F080387105610509F03C5FE7
:102630003C5F3D93913008F08068911DDF93CF930C
:102640001F930F93FF92EF92192F987F9695E92F82
:1026500096959695E90FFF27E350FF4F992733276B
:10266000EE24FF24A701E70105900894079428F4BD
:10267000360FE71EF81E491F511D660F771F881F72
:10268000991F0694A1F70590079428F4E70EF81E09
:10269000491F561FC11D770F881F991F661F06947B
:1026A000A1F70590079428F4F80E491F561FC71F7D
:1026B000D11D880F991F661F771F0694A1F70590FB
:1026C000079420F4490F561FC71FD81F990F661F84
:1026D000771F881F0694A9F784911095177041F011
:1026E000D695C79557954795F794E7941A95C1F7EE
:1026F000E3EAF0E068941590159135916591959114
:1027000005907FE27395E118F10A430B560BC90B54
:10271000D009C0F7E10CF11E431F561FC91FD01D81
:102720007EF4703311F48A95E6CFE894015030F0CE
:10273000080F0AF40027021708F4202F2395022F10
:102740007A3328F079E37D932A95E9F710C07D93D9
:102750002A9589F606949795679537951795179456
:10276000E118F10A430B560BC90BD00998F02395D9
:102770007E9173957A3308F070E37C932013B8F759
:102780007E9170617D9330F0839571E37D9370E36A
:102790002A95E1F71124EF90FF900F911F91CF91AF
:1027A000DF91992787FD9095089591110C94C91494
:1027B000803219F089508550C8F70895FB01DC017B
:1027C0004150504088F08D9181341CF08B350CF4D1
:1027D000805E659161341CF06B350CF4605E861B85
:1027E000611171F3990B0895881BFCCF0E94381476
:1027F00008F481E00895E89409C097FB3EF49095B1
:102800008095709561957F4F8F4F9F4F9923A9F0C9
:10281000F92F96E9BB279395F69587957795679558
:10282000B795F111F8CFFAF4BB0F11F460FF1BC09C
:102830006F5F7F4F8F4F9F4F16C0882311F096E92F
:1028400011C0772321F09EE8872F762F05C06623DD
:1028500071F096E8862F70E060E02AF09A95660F96
:10286000771F881FDAF7880F9695879597F908954F
:10287000990F0008550FAA0BE0E8FEEF1616170691
:10288000E807F907C0F012161306E407F50798F0F9
:10289000621B730B840B950B39F40A2661F0232B12
:1028A000242B252B21F408950A2609F4A140A6958E
:1028B0008FEF811D811D08950E946F140C94E31405
:1028C0000E94D51438F00E94DC1420F0952311F0FA
:1028D0000C94CC140C94D21411240C9417150E944F
:1028E000F41470F3959FC1F3950F50E0551F629F4C
:1028F000F001729FBB27F00DB11D639FAA27F00D59
:10290000B11DAA1F649F6627B00DA11D661F829F7F
:102910002227B00DA11D621F739FB00DA11D621F64
:10292000839FA00D611D221F749F3327A00D611D81
:10293000231F849F600D211D822F762F6A2F112463
:102940009F5750409AF0F1F088234AF0EE0FFF1F96
:10295000BB1F661F771F881F91505040A9F79E3FED
:10296000510580F00C94CC140C9417155F3FE4F3E0
:10297000983ED4F3869577956795B795F795E79543
:102980009F5FC1F7FE2B880F911D9695879597F94C
:10299000089599278827089597F99F6780E870E040
:1029A00060E008959FEF80EC089500240A941616C5
:1029B000170618060906089500240A94121613062D
:1029C000140605060895092E0394000C11F48823BB
:1029D00052F0BB0F40F4BF2B11F460FF04C06F5FD7
:1029E0007F4F8F4F9F4F089557FD9058440F551FAD
:1029F00059F05F3F71F04795880F97FB991F61F081
:102A00009F3F79F087950895121613061406551FF7
:102A1000F2CF4695F1DF08C0161617061806991F63
:102A2000F1CF86957105610508940895E894BB2758
:102A300066277727CB0197F908950E945F15A59F18
:102A4000900DB49F900DA49F800D911D11240895A9
:102A50002F923F924F925F926F927F928F929F92AE
:102A6000AF92BF92CF92DF92EF92FF920F931F939C
:102A7000CF93DF93CDB7DEB7CA1BDB0B0FB6F8944D
:102A8000DEBF0FBECDBF09942A88398848885F848D
:102A90006E847D848C849B84AA84B984C884DF80FE
:102AA000EE80FD800C811B81AA81B981CE0FD11DE2
:102AB0000FB6F894DEBF0FBECDBFED010895A29F03
:102AC000B001B39FC001A39F700D811D1124911D02
:102AD000B29F700D811D1124911D08955058BB2780
:102AE000AA270E9486150C94E3140E94D51438F08E
:102AF0000E94DC1420F039F49F3F19F426F40C9462
:102B0000D2140EF4E095E7FB0C94CC14E92F0E944C
:102B1000F41458F3BA17620773078407950720F077
:102B200079F4A6F50C9416150EF4E0950B2EBA2F39
:102B3000A02D0B01B90190010C01CA01A0011124C3
:102B4000FF27591B99F0593F50F4503E68F11A166F
:102B5000F040A22F232F342F4427585FF3CF469500
:102B600037952795A795F0405395C9F77EF41F1622
:102B7000BA0B620B730B840BBAF09150A1F0FF0FEC
:102B8000BB1F661F771F881FC2F70EC0BA0F621FD8
:102B9000731F841F48F4879577956795B795F795C8
:102BA0009E3F08F0B0CF9395880F08F09927EE0F5D
:102BB0009795879508950E94EF150C94E3140E9451
:102BC000DC1458F00E94D51440F029F45F3F29F03E
:102BD0000C94CC1451110C9417150C94D2140E941F
:102BE000F41468F39923B1F3552391F3951B550B16
:102BF000BB27AA2762177307840738F09F5F5F4FD0
:102C0000220F331F441FAA1FA9F335D00E2E3AF00E
:102C1000E0E832D091505040E695001CCAF72BD026
:102C2000FE2F29D0660F771F881FBB1F2617370777
:102C30004807AB07B0E809F0BB0B802DBF01FF27A9
:102C400093585F4F3AF09E3F510578F00C94CC14A6
:102C50000C9417155F3FE4F3983ED4F3869577956F
:102C60006795B795F7959F5FC9F7880F911D969562
:102C7000879597F90895E1E0660F771F881FBB1FBE
:102C8000621773078407BA0720F0621B730B840B6B
:102C9000BA0BEE1F88F7E09508950E94FC1488F0A7
:102CA0009F5798F0B92F9927B751B0F0E1F0660F10
:102CB000771F881F991F1AF0BA95C9F714C0B13051
:102CC00091F00E941615B1E008950C941615672F27
:102CD000782F8827B85F39F0B93FCCF38695779580
:102CE0006795B395D9F73EF4909580957095619569
:102CF0007F4F8F4F9F4F08950E94381408F48FEF35
:102D000008950E943814880B990B0895A1E21A2E99
:102D1000AA1BBB1BFD010DC0AA1FBB1FEE1FFF1F7F
:102D2000A217B307E407F50720F0A21BB30BE40BCF
:102D3000F50B661F771F881F991F1A9469F7609516
:102D40007095809590959B01AC01BD01CF010895D0
:102D5000EE0FFF1F0590F491E02D09946817790795
:102D600068F4FB01DC01E40FF51FA40FB51F02C0DE
:102D700002900E9241505040D8F708950C94D0160E
:102D8000FB01DC010D900020E9F711974150504004
:102D900028F0019000200D92C9F708951C92089523
:102DA000FB01DC0102C001900D9241505040D8F768
:102DB0000895F894FFCF050403020908070631328D
:102DC000332B3435362D3738392A2E303D2F00003D
:102DD000400014005400000000008103E1020E03D3
:102DE000CE033F031D03310300000000AC047F0449
:102DF000C205550478046504560400000000CD02A5
:102E0000D102D50200000000E607E102C205EE0390
:102E10004572726F723A00546F6F206C6F6E67006C
:102E20004469766973696F6E2062792030000D0AFB
:102E30000043616C63756C61746F7200496E7661FA
:102E40006C6964204578707200526573756C743AD1
:0E2E500020006E616E00696E66006F7666008F
:107E0000112484B714BE81FFF0D085E080938100F7
:107E100082E08093C00088E18093C10086E0809377
:107E2000C20080E18093C4008EE0C9D0259A86E02C
:107E300020E33CEF91E0309385002093840096BBD3
:107E4000B09BFECF1D9AA8958150A9F7CC24DD24C4
:107E500088248394B5E0AB2EA1E19A2EF3E0BF2EE7
:107E6000A2D0813461F49FD0082FAFD0023811F036
:107E7000013811F484E001C083E08DD089C08234E0
:107E800011F484E103C0853419F485E0A6D080C0E4
:107E9000853579F488D0E82EFF2485D0082F10E0AE
:107EA000102F00270E291F29000F111F8ED06801E7
:107EB0006FC0863521F484E090D080E0DECF843638
:107EC00009F040C070D06FD0082F6DD080E0C81688
:107ED00080E7D80618F4F601B7BEE895C0E0D1E017
:107EE00062D089930C17E1F7F0E0CF16F0E7DF06D8
:107EF00018F0F601B7BEE89568D007B600FCFDCFD4
:107F0000A601A0E0B1E02C9130E011968C91119780
:107F100090E0982F8827822B932B1296FA010C0160
:107F200087BEE89511244E5F5F4FF1E0A038BF0790
:107F300051F7F601A7BEE89507B600FCFDCF97BE46
:107F4000E89526C08437B1F42ED02DD0F82E2BD052
:107F50003CD0F601EF2C8F010F5F1F4F84911BD097
:107F6000EA94F801C1F70894C11CD11CFA94CF0C13
:107F7000D11C0EC0853739F428D08EE10CD085E9AC
:107F80000AD08FE07ACF813511F488E018D01DD067
:107F900080E101D065CF982F8091C00085FFFCCF94
:107FA0009093C60008958091C00087FFFCCF809118
:107FB000C00084FD01C0A8958091C6000895E0E648
:107FC000F0E098E1908380830895EDDF803219F02E
:107FD00088E0F5DFFFCF84E1DECF1F93182FE3DFCA
:107FE0001150E9F7F2DF1F91089580E0E8DFEE27F6
:047FF000FF270994CA
:027FFE00040479
:00000001FF
